{
  "contractName": "ASCIIWall",
  "abi": [
    {
      "inputs": [],
      "stateMutability": "nonpayable",
      "type": "constructor"
    },
    {
      "anonymous": false,
      "inputs": [
        {
          "indexed": true,
          "internalType": "address",
          "name": "owner",
          "type": "address"
        },
        {
          "indexed": true,
          "internalType": "address",
          "name": "approved",
          "type": "address"
        },
        {
          "indexed": true,
          "internalType": "uint256",
          "name": "tokenId",
          "type": "uint256"
        }
      ],
      "name": "Approval",
      "type": "event"
    },
    {
      "anonymous": false,
      "inputs": [
        {
          "indexed": true,
          "internalType": "address",
          "name": "owner",
          "type": "address"
        },
        {
          "indexed": true,
          "internalType": "address",
          "name": "operator",
          "type": "address"
        },
        {
          "indexed": false,
          "internalType": "bool",
          "name": "approved",
          "type": "bool"
        }
      ],
      "name": "ApprovalForAll",
      "type": "event"
    },
    {
      "anonymous": false,
      "inputs": [
        {
          "indexed": true,
          "internalType": "address",
          "name": "previousOwner",
          "type": "address"
        },
        {
          "indexed": true,
          "internalType": "address",
          "name": "newOwner",
          "type": "address"
        }
      ],
      "name": "OwnershipTransferred",
      "type": "event"
    },
    {
      "anonymous": false,
      "inputs": [
        {
          "indexed": false,
          "internalType": "address",
          "name": "account",
          "type": "address"
        }
      ],
      "name": "Paused",
      "type": "event"
    },
    {
      "anonymous": false,
      "inputs": [
        {
          "indexed": true,
          "internalType": "address",
          "name": "from",
          "type": "address"
        },
        {
          "indexed": true,
          "internalType": "address",
          "name": "to",
          "type": "address"
        },
        {
          "indexed": true,
          "internalType": "uint256",
          "name": "tokenId",
          "type": "uint256"
        }
      ],
      "name": "Transfer",
      "type": "event"
    },
    {
      "anonymous": false,
      "inputs": [
        {
          "indexed": false,
          "internalType": "address",
          "name": "account",
          "type": "address"
        }
      ],
      "name": "Unpaused",
      "type": "event"
    },
    {
      "inputs": [],
      "name": "DEPOSIT_ADDRESS",
      "outputs": [
        {
          "internalType": "address",
          "name": "",
          "type": "address"
        }
      ],
      "stateMutability": "view",
      "type": "function",
      "constant": true
    },
    {
      "inputs": [],
      "name": "MAX_LINE_COUNT",
      "outputs": [
        {
          "internalType": "int256",
          "name": "",
          "type": "int256"
        }
      ],
      "stateMutability": "view",
      "type": "function",
      "constant": true
    },
    {
      "inputs": [],
      "name": "MAX_LINE_LENGTH",
      "outputs": [
        {
          "internalType": "int256",
          "name": "",
          "type": "int256"
        }
      ],
      "stateMutability": "view",
      "type": "function",
      "constant": true
    },
    {
      "inputs": [],
      "name": "MAX_TOKEN_COUNT",
      "outputs": [
        {
          "internalType": "uint256",
          "name": "",
          "type": "uint256"
        }
      ],
      "stateMutability": "view",
      "type": "function",
      "constant": true
    },
    {
      "inputs": [],
      "name": "PROJECT_DESCRIPTION",
      "outputs": [
        {
          "internalType": "string",
          "name": "",
          "type": "string"
        }
      ],
      "stateMutability": "view",
      "type": "function",
      "constant": true
    },
    {
      "inputs": [],
      "name": "TEXT_LINE_HEIGHT",
      "outputs": [
        {
          "internalType": "uint256",
          "name": "",
          "type": "uint256"
        }
      ],
      "stateMutability": "view",
      "type": "function",
      "constant": true
    },
    {
      "inputs": [],
      "name": "TOKEN_COST",
      "outputs": [
        {
          "internalType": "uint256",
          "name": "",
          "type": "uint256"
        }
      ],
      "stateMutability": "view",
      "type": "function",
      "constant": true
    },
    {
      "inputs": [
        {
          "internalType": "address",
          "name": "to",
          "type": "address"
        },
        {
          "internalType": "uint256",
          "name": "tokenId",
          "type": "uint256"
        }
      ],
      "name": "approve",
      "outputs": [],
      "stateMutability": "nonpayable",
      "type": "function"
    },
    {
      "inputs": [
        {
          "internalType": "address",
          "name": "owner",
          "type": "address"
        }
      ],
      "name": "balanceOf",
      "outputs": [
        {
          "internalType": "uint256",
          "name": "",
          "type": "uint256"
        }
      ],
      "stateMutability": "view",
      "type": "function",
      "constant": true
    },
    {
      "inputs": [
        {
          "internalType": "uint256",
          "name": "tokenId",
          "type": "uint256"
        }
      ],
      "name": "getApproved",
      "outputs": [
        {
          "internalType": "address",
          "name": "",
          "type": "address"
        }
      ],
      "stateMutability": "view",
      "type": "function",
      "constant": true
    },
    {
      "inputs": [
        {
          "internalType": "address",
          "name": "owner",
          "type": "address"
        },
        {
          "internalType": "address",
          "name": "operator",
          "type": "address"
        }
      ],
      "name": "isApprovedForAll",
      "outputs": [
        {
          "internalType": "bool",
          "name": "",
          "type": "bool"
        }
      ],
      "stateMutability": "view",
      "type": "function",
      "constant": true
    },
    {
      "inputs": [],
      "name": "name",
      "outputs": [
        {
          "internalType": "string",
          "name": "",
          "type": "string"
        }
      ],
      "stateMutability": "view",
      "type": "function",
      "constant": true
    },
    {
      "inputs": [],
      "name": "owner",
      "outputs": [
        {
          "internalType": "address",
          "name": "",
          "type": "address"
        }
      ],
      "stateMutability": "view",
      "type": "function",
      "constant": true
    },
    {
      "inputs": [
        {
          "internalType": "uint256",
          "name": "tokenId",
          "type": "uint256"
        }
      ],
      "name": "ownerOf",
      "outputs": [
        {
          "internalType": "address",
          "name": "",
          "type": "address"
        }
      ],
      "stateMutability": "view",
      "type": "function",
      "constant": true
    },
    {
      "inputs": [],
      "name": "paused",
      "outputs": [
        {
          "internalType": "bool",
          "name": "",
          "type": "bool"
        }
      ],
      "stateMutability": "view",
      "type": "function",
      "constant": true
    },
    {
      "inputs": [],
      "name": "renounceOwnership",
      "outputs": [],
      "stateMutability": "nonpayable",
      "type": "function"
    },
    {
      "inputs": [
        {
          "internalType": "address",
          "name": "from",
          "type": "address"
        },
        {
          "internalType": "address",
          "name": "to",
          "type": "address"
        },
        {
          "internalType": "uint256",
          "name": "tokenId",
          "type": "uint256"
        }
      ],
      "name": "safeTransferFrom",
      "outputs": [],
      "stateMutability": "nonpayable",
      "type": "function"
    },
    {
      "inputs": [
        {
          "internalType": "address",
          "name": "from",
          "type": "address"
        },
        {
          "internalType": "address",
          "name": "to",
          "type": "address"
        },
        {
          "internalType": "uint256",
          "name": "tokenId",
          "type": "uint256"
        },
        {
          "internalType": "bytes",
          "name": "_data",
          "type": "bytes"
        }
      ],
      "name": "safeTransferFrom",
      "outputs": [],
      "stateMutability": "nonpayable",
      "type": "function"
    },
    {
      "inputs": [
        {
          "internalType": "address",
          "name": "operator",
          "type": "address"
        },
        {
          "internalType": "bool",
          "name": "approved",
          "type": "bool"
        }
      ],
      "name": "setApprovalForAll",
      "outputs": [],
      "stateMutability": "nonpayable",
      "type": "function"
    },
    {
      "inputs": [],
      "name": "symbol",
      "outputs": [
        {
          "internalType": "string",
          "name": "",
          "type": "string"
        }
      ],
      "stateMutability": "view",
      "type": "function",
      "constant": true
    },
    {
      "inputs": [
        {
          "internalType": "uint256",
          "name": "index",
          "type": "uint256"
        }
      ],
      "name": "tokenByIndex",
      "outputs": [
        {
          "internalType": "uint256",
          "name": "",
          "type": "uint256"
        }
      ],
      "stateMutability": "view",
      "type": "function",
      "constant": true
    },
    {
      "inputs": [
        {
          "internalType": "address",
          "name": "owner",
          "type": "address"
        },
        {
          "internalType": "uint256",
          "name": "index",
          "type": "uint256"
        }
      ],
      "name": "tokenOfOwnerByIndex",
      "outputs": [
        {
          "internalType": "uint256",
          "name": "",
          "type": "uint256"
        }
      ],
      "stateMutability": "view",
      "type": "function",
      "constant": true
    },
    {
      "inputs": [],
      "name": "totalSupply",
      "outputs": [
        {
          "internalType": "uint256",
          "name": "",
          "type": "uint256"
        }
      ],
      "stateMutability": "view",
      "type": "function",
      "constant": true
    },
    {
      "inputs": [
        {
          "internalType": "address",
          "name": "from",
          "type": "address"
        },
        {
          "internalType": "address",
          "name": "to",
          "type": "address"
        },
        {
          "internalType": "uint256",
          "name": "tokenId",
          "type": "uint256"
        }
      ],
      "name": "transferFrom",
      "outputs": [],
      "stateMutability": "nonpayable",
      "type": "function"
    },
    {
      "inputs": [
        {
          "internalType": "address",
          "name": "newOwner",
          "type": "address"
        }
      ],
      "name": "transferOwnership",
      "outputs": [],
      "stateMutability": "nonpayable",
      "type": "function"
    },
    {
      "inputs": [
        {
          "internalType": "uint256",
          "name": "",
          "type": "uint256"
        }
      ],
      "name": "wordPlacements",
      "outputs": [
        {
          "internalType": "string",
          "name": "color",
          "type": "string"
        },
        {
          "internalType": "string",
          "name": "message",
          "type": "string"
        },
        {
          "internalType": "int256",
          "name": "line",
          "type": "int256"
        },
        {
          "internalType": "int256",
          "name": "offset",
          "type": "int256"
        }
      ],
      "stateMutability": "view",
      "type": "function",
      "constant": true
    },
    {
      "inputs": [],
      "name": "pause",
      "outputs": [],
      "stateMutability": "nonpayable",
      "type": "function"
    },
    {
      "inputs": [],
      "name": "unpause",
      "outputs": [],
      "stateMutability": "nonpayable",
      "type": "function"
    },
    {
      "inputs": [
        {
          "internalType": "address",
          "name": "to",
          "type": "address"
        },
        {
          "internalType": "string",
          "name": "wordColor",
          "type": "string"
        },
        {
          "internalType": "string",
          "name": "message",
          "type": "string"
        },
        {
          "internalType": "int256",
          "name": "line",
          "type": "int256"
        },
        {
          "internalType": "int256",
          "name": "offset",
          "type": "int256"
        }
      ],
      "name": "safeMint",
      "outputs": [],
      "stateMutability": "payable",
      "type": "function",
      "payable": true
    },
    {
      "inputs": [
        {
          "internalType": "bytes4",
          "name": "interfaceId",
          "type": "bytes4"
        }
      ],
      "name": "supportsInterface",
      "outputs": [
        {
          "internalType": "bool",
          "name": "",
          "type": "bool"
        }
      ],
      "stateMutability": "view",
      "type": "function",
      "constant": true
    },
    {
      "inputs": [
        {
          "internalType": "string",
          "name": "color",
          "type": "string"
        }
      ],
      "name": "isValidColor",
      "outputs": [
        {
          "internalType": "bool",
          "name": "",
          "type": "bool"
        }
      ],
      "stateMutability": "pure",
      "type": "function",
      "constant": true
    },
    {
      "inputs": [
        {
          "internalType": "string",
          "name": "message",
          "type": "string"
        }
      ],
      "name": "isValidMessage",
      "outputs": [
        {
          "internalType": "bool",
          "name": "",
          "type": "bool"
        }
      ],
      "stateMutability": "pure",
      "type": "function",
      "constant": true
    },
    {
      "inputs": [
        {
          "internalType": "uint256",
          "name": "idx",
          "type": "uint256"
        }
      ],
      "name": "renderForIndex",
      "outputs": [
        {
          "internalType": "string",
          "name": "",
          "type": "string"
        }
      ],
      "stateMutability": "view",
      "type": "function",
      "constant": true
    },
    {
      "inputs": [
        {
          "internalType": "uint256",
          "name": "tokenId",
          "type": "uint256"
        }
      ],
      "name": "tokenURI",
      "outputs": [
        {
          "internalType": "string",
          "name": "",
          "type": "string"
        }
      ],
      "stateMutability": "view",
      "type": "function",
      "constant": true
    }
  ],
  "bytecode": "0x60806040526040518060400160405280601b81526020017f4465617468206973206f6e6c792074686520626567696e6e696e670000000000815250600c9080519060200190620000519291906200020f565b503480156200005f57600080fd5b506040518060400160405280600981526020017f415343494957616c6c00000000000000000000000000000000000000000000008152506040518060400160405280600381526020017f41534300000000000000000000000000000000000000000000000000000000008152508160009080519060200190620000e49291906200020f565b508060019080519060200190620000fd9291906200020f565b5050506000600a60006101000a81548160ff0219169083151502179055506200013b6200012f6200014160201b60201c565b6200014960201b60201c565b62000324565b600033905090565b6000600a60019054906101000a900473ffffffffffffffffffffffffffffffffffffffff16905081600a60016101000a81548173ffffffffffffffffffffffffffffffffffffffff021916908373ffffffffffffffffffffffffffffffffffffffff1602179055508173ffffffffffffffffffffffffffffffffffffffff168173ffffffffffffffffffffffffffffffffffffffff167f8be0079c531659141344cd1fd0a4f28419497f9722a3daafe3b4186f6b6457e060405160405180910390a35050565b8280546200021d90620002ee565b90600052602060002090601f0160209004810192826200024157600085556200028d565b82601f106200025c57805160ff19168380011785556200028d565b828001600101855582156200028d579182015b828111156200028c5782518255916020019190600101906200026f565b5b5090506200029c9190620002a0565b5090565b5b80821115620002bb576000816000905550600101620002a1565b5090565b7f4e487b7100000000000000000000000000000000000000000000000000000000600052602260045260246000fd5b600060028204905060018216806200030757607f821691505b602082108114156200031e576200031d620002bf565b5b50919050565b61584180620003346000396000f3fe6080604052600436106101f95760003560e01c80638456cb591161010d578063c87b56dd116100a0578063edbcbb271161006f578063edbcbb271461073f578063f0b574391461077c578063f2fde38b146107a7578063fdb1d8f2146107d0578063ff0d2c261461080d576101f9565b8063c87b56dd1461067e578063d0bbb0d7146106bb578063d2c20371146106e6578063e985e9c514610702576101f9565b8063a22cb465116100dc578063a22cb465146105c4578063ad03fe58146105ed578063b88d4fde14610618578063c0d5b17714610641576101f9565b80638456cb591461052c5780638da5cb5b146105435780638e73c9141461056e57806395d89b4114610599576101f9565b80633aa35ee0116101905780635c975abb1161015f5780635c975abb146104455780636352211e1461047057806370a08231146104ad578063715018a6146104ea57806371d55e0a14610501576101f9565b80633aa35ee01461039d5780633f4ba83a146103c857806342842e0e146103df5780634f6ccce714610408576101f9565b806318160ddd116101cc57806318160ddd146102cc57806323b872dd146102f75780632a362bdf146103205780632f745c5914610360576101f9565b806301ffc9a7146101fe57806306fdde031461023b578063081812fc14610266578063095ea7b3146102a3575b600080fd5b34801561020a57600080fd5b5061022560048036038101906102209190613639565b610838565b6040516102329190613681565b60405180910390f35b34801561024757600080fd5b5061025061084a565b60405161025d9190613735565b60405180910390f35b34801561027257600080fd5b5061028d6004803603810190610288919061378d565b6108dc565b60405161029a91906137fb565b60405180910390f35b3480156102af57600080fd5b506102ca60048036038101906102c59190613842565b610961565b005b3480156102d857600080fd5b506102e1610a79565b6040516102ee9190613891565b60405180910390f35b34801561030357600080fd5b5061031e600480360381019061031991906138ac565b610a86565b005b34801561032c57600080fd5b506103476004803603810190610342919061378d565b610ae6565b6040516103579493929190613918565b60405180910390f35b34801561036c57600080fd5b5061038760048036038101906103829190613842565b610c36565b6040516103949190613891565b60405180910390f35b3480156103a957600080fd5b506103b2610cdb565b6040516103bf9190613891565b60405180910390f35b3480156103d457600080fd5b506103dd610ce6565b005b3480156103eb57600080fd5b50610406600480360381019061040191906138ac565b610d6c565b005b34801561041457600080fd5b5061042f600480360381019061042a919061378d565b610d8c565b60405161043c9190613891565b60405180910390f35b34801561045157600080fd5b5061045a610dfd565b6040516104679190613681565b60405180910390f35b34801561047c57600080fd5b506104976004803603810190610492919061378d565b610e14565b6040516104a491906137fb565b60405180910390f35b3480156104b957600080fd5b506104d460048036038101906104cf919061396b565b610ec6565b6040516104e19190613891565b60405180910390f35b3480156104f657600080fd5b506104ff610f7e565b005b34801561050d57600080fd5b50610516611006565b6040516105239190613735565b60405180910390f35b34801561053857600080fd5b50610541611094565b005b34801561054f57600080fd5b5061055861111a565b60405161056591906137fb565b60405180910390f35b34801561057a57600080fd5b50610583611144565b6040516105909190613891565b60405180910390f35b3480156105a557600080fd5b506105ae611149565b6040516105bb9190613735565b60405180910390f35b3480156105d057600080fd5b506105eb60048036038101906105e691906139c4565b6111db565b005b3480156105f957600080fd5b5061060261135c565b60405161060f9190613a04565b60405180910390f35b34801561062457600080fd5b5061063f600480360381019061063a9190613b54565b611361565b005b34801561064d57600080fd5b5061066860048036038101906106639190613c78565b6113c3565b6040516106759190613681565b60405180910390f35b34801561068a57600080fd5b506106a560048036038101906106a0919061378d565b6115e6565b6040516106b29190613735565b60405180910390f35b3480156106c757600080fd5b506106d06116a7565b6040516106dd9190613891565b60405180910390f35b61070060048036038101906106fb9190613ced565b6116ac565b005b34801561070e57600080fd5b5061072960048036038101906107249190613da0565b611ae0565b6040516107369190613681565b60405180910390f35b34801561074b57600080fd5b506107666004803603810190610761919061378d565b611b74565b6040516107739190613735565b60405180910390f35b34801561078857600080fd5b50610791611e13565b60405161079e9190613a04565b60405180910390f35b3480156107b357600080fd5b506107ce60048036038101906107c9919061396b565b611e18565b005b3480156107dc57600080fd5b506107f760048036038101906107f29190613c78565b611f10565b6040516108049190613681565b60405180910390f35b34801561081957600080fd5b50610822612108565b60405161082f91906137fb565b60405180910390f35b600061084382612120565b9050919050565b60606000805461085990613e0f565b80601f016020809104026020016040519081016040528092919081815260200182805461088590613e0f565b80156108d25780601f106108a7576101008083540402835291602001916108d2565b820191906000526020600020905b8154815290600101906020018083116108b557829003601f168201915b5050505050905090565b60006108e78261219a565b610926576040517f08c379a000000000000000000000000000000000000000000000000000000000815260040161091d90613eb3565b60405180910390fd5b6004600083815260200190815260200160002060009054906101000a900473ffffffffffffffffffffffffffffffffffffffff169050919050565b600061096c82610e14565b90508073ffffffffffffffffffffffffffffffffffffffff168373ffffffffffffffffffffffffffffffffffffffff1614156109dd576040517f08c379a00000000000000000000000000000000000000000000000000000000081526004016109d490613f45565b60405180910390fd5b8073ffffffffffffffffffffffffffffffffffffffff166109fc612206565b73ffffffffffffffffffffffffffffffffffffffff161480610a2b5750610a2a81610a25612206565b611ae0565b5b610a6a576040517f08c379a0000000000000000000000000000000000000000000000000000000008152600401610a6190613fd7565b60405180910390fd5b610a74838361220e565b505050565b6000600880549050905090565b610a97610a91612206565b826122c7565b610ad6576040517f08c379a0000000000000000000000000000000000000000000000000000000008152600401610acd90614069565b60405180910390fd5b610ae18383836123a5565b505050565b600d8181548110610af657600080fd5b9060005260206000209060040201600091509050806000018054610b1990613e0f565b80601f0160208091040260200160405190810160405280929190818152602001828054610b4590613e0f565b8015610b925780601f10610b6757610100808354040283529160200191610b92565b820191906000526020600020905b815481529060010190602001808311610b7557829003601f168201915b505050505090806001018054610ba790613e0f565b80601f0160208091040260200160405190810160405280929190818152602001828054610bd390613e0f565b8015610c205780601f10610bf557610100808354040283529160200191610c20565b820191906000526020600020905b815481529060010190602001808311610c0357829003601f168201915b5050505050908060020154908060030154905084565b6000610c4183610ec6565b8210610c82576040517f08c379a0000000000000000000000000000000000000000000000000000000008152600401610c79906140fb565b60405180910390fd5b600660008473ffffffffffffffffffffffffffffffffffffffff1673ffffffffffffffffffffffffffffffffffffffff168152602001908152602001600020600083815260200190815260200160002054905092915050565b6658d15e1762800081565b610cee612206565b73ffffffffffffffffffffffffffffffffffffffff16610d0c61111a565b73ffffffffffffffffffffffffffffffffffffffff1614610d62576040517f08c379a0000000000000000000000000000000000000000000000000000000008152600401610d5990614167565b60405180910390fd5b610d6a612601565b565b610d8783838360405180602001604052806000815250611361565b505050565b6000610d96610a79565b8210610dd7576040517f08c379a0000000000000000000000000000000000000000000000000000000008152600401610dce906141f9565b60405180910390fd5b60088281548110610deb57610dea614219565b5b90600052602060002001549050919050565b6000600a60009054906101000a900460ff16905090565b6000806002600084815260200190815260200160002060009054906101000a900473ffffffffffffffffffffffffffffffffffffffff169050600073ffffffffffffffffffffffffffffffffffffffff168173ffffffffffffffffffffffffffffffffffffffff161415610ebd576040517f08c379a0000000000000000000000000000000000000000000000000000000008152600401610eb4906142ba565b60405180910390fd5b80915050919050565b60008073ffffffffffffffffffffffffffffffffffffffff168273ffffffffffffffffffffffffffffffffffffffff161415610f37576040517f08c379a0000000000000000000000000000000000000000000000000000000008152600401610f2e9061434c565b60405180910390fd5b600360008373ffffffffffffffffffffffffffffffffffffffff1673ffffffffffffffffffffffffffffffffffffffff168152602001908152602001600020549050919050565b610f86612206565b73ffffffffffffffffffffffffffffffffffffffff16610fa461111a565b73ffffffffffffffffffffffffffffffffffffffff1614610ffa576040517f08c379a0000000000000000000000000000000000000000000000000000000008152600401610ff190614167565b60405180910390fd5b61100460006126a3565b565b600c805461101390613e0f565b80601f016020809104026020016040519081016040528092919081815260200182805461103f90613e0f565b801561108c5780601f106110615761010080835404028352916020019161108c565b820191906000526020600020905b81548152906001019060200180831161106f57829003601f168201915b505050505081565b61109c612206565b73ffffffffffffffffffffffffffffffffffffffff166110ba61111a565b73ffffffffffffffffffffffffffffffffffffffff1614611110576040517f08c379a000000000000000000000000000000000000000000000000000000000815260040161110790614167565b60405180910390fd5b611118612769565b565b6000600a60019054906101000a900473ffffffffffffffffffffffffffffffffffffffff16905090565b601081565b60606001805461115890613e0f565b80601f016020809104026020016040519081016040528092919081815260200182805461118490613e0f565b80156111d15780601f106111a6576101008083540402835291602001916111d1565b820191906000526020600020905b8154815290600101906020018083116111b457829003601f168201915b5050505050905090565b6111e3612206565b73ffffffffffffffffffffffffffffffffffffffff168273ffffffffffffffffffffffffffffffffffffffff161415611251576040517f08c379a0000000000000000000000000000000000000000000000000000000008152600401611248906143b8565b60405180910390fd5b806005600061125e612206565b73ffffffffffffffffffffffffffffffffffffffff1673ffffffffffffffffffffffffffffffffffffffff16815260200190815260200160002060008473ffffffffffffffffffffffffffffffffffffffff1673ffffffffffffffffffffffffffffffffffffffff16815260200190815260200160002060006101000a81548160ff0219169083151502179055508173ffffffffffffffffffffffffffffffffffffffff1661130b612206565b73ffffffffffffffffffffffffffffffffffffffff167f17307eab39ab6107e8899845ad3d59bd9653f200f220920489ca2b5937696c31836040516113509190613681565b60405180910390a35050565b602981565b61137261136c612206565b836122c7565b6113b1576040517f08c379a00000000000000000000000000000000000000000000000000000000081526004016113a890614069565b60405180910390fd5b6113bd8484848461280c565b50505050565b60008082905060005b81518110156115da5760008282815181106113ea576113e9614219565b5b602001015160f81c60f81b9050602060f81b817effffffffffffffffffffffffffffffffffffffffffffffffffffffffffffff1916101580156114535750602160f81b817effffffffffffffffffffffffffffffffffffffffffffffffffffffffffffff191611155b1580156114b95750602360f81b817effffffffffffffffffffffffffffffffffffffffffffffffffffffffffffff1916101580156114b75750602560f81b817effffffffffffffffffffffffffffffffffffffffffffffffffffffffffffff191611155b155b801561151e5750602860f81b817effffffffffffffffffffffffffffffffffffffffffffffffffffffffffffff19161015801561151c5750603b60f81b817effffffffffffffffffffffffffffffffffffffffffffffffffffffffffffff191611155b155b80156115835750603f60f81b817effffffffffffffffffffffffffffffffffffffffffffffffffffffffffffff1916101580156115815750607e60f81b817effffffffffffffffffffffffffffffffffffffffffffffffffffffffffffff191611155b155b80156115b55750603d60f81b817effffffffffffffffffffffffffffffffffffffffffffffffffffffffffffff191614155b156115c657600093505050506115e1565b5080806115d290614407565b9150506113cc565b5060019150505b919050565b60606115f18261219a565b611630576040517f08c379a0000000000000000000000000000000000000000000000000000000008152600401611627906144c2565b60405180910390fd5b600061163b83611b74565b9050600061164884612868565b600c611653846129c9565b60405160200161166593929190614708565b604051602081830303815290604052905061167f816129c9565b60405160200161168f91906147b1565b60405160208183030381529060405292505050919050565b606481565b60008112156116f0576040517f08c379a00000000000000000000000000000000000000000000000000000000081526004016116e790614845565b60405180910390fd5b6000821215611734576040517f08c379a000000000000000000000000000000000000000000000000000000000815260040161172b906148d7565b60405180910390fd5b602983518261174391906148f7565b1315611784576040517f08c379a000000000000000000000000000000000000000000000000000000000815260040161177b906149d7565b60405180910390fd5b61178d84611f10565b6117cc576040517f08c379a00000000000000000000000000000000000000000000000000000000081526004016117c390614a69565b60405180910390fd5b6117d5836113c3565b611814576040517f08c379a000000000000000000000000000000000000000000000000000000000815260040161180b90614afb565b60405180910390fd5b60128212611857576040517f08c379a000000000000000000000000000000000000000000000000000000000815260040161184e90614b67565b60405180910390fd5b60643073ffffffffffffffffffffffffffffffffffffffff166318160ddd6040518163ffffffff1660e01b8152600401602060405180830381865afa1580156118a4573d6000803e3d6000fd5b505050506040513d601f19601f820116820180604052508101906118c89190614b9c565b10611908576040517f08c379a00000000000000000000000000000000000000000000000000000000081526004016118ff90614c15565b60405180910390fd5b6658d15e17628000341015611952576040517f08c379a000000000000000000000000000000000000000000000000000000000815260040161194990614c81565b60405180910390fd5b6658d15e176280003373ffffffffffffffffffffffffffffffffffffffff1631116119b2576040517f08c379a00000000000000000000000000000000000000000000000000000000081526004016119a990614ced565b60405180910390fd5b600073095f1fd53a56c01c76a2a56b7273995ce915d8c490508073ffffffffffffffffffffffffffffffffffffffff166108fc6658d15e176280009081150290604051600060405180830381858888f19350505050158015611a18573d6000803e3d6000fd5b506000611a25600b612b61565b9050611a31600b612b6f565b611a3b8782612b85565b600d60405180608001604052808881526020018781526020018681526020018581525090806001815401808255809150506001900390600052602060002090600402016000909190919091506000820151816000019080519060200190611aa392919061352a565b506020820151816001019080519060200190611ac092919061352a565b506040820151816002015560608201518160030155505050505050505050565b6000600560008473ffffffffffffffffffffffffffffffffffffffff1673ffffffffffffffffffffffffffffffffffffffff16815260200190815260200160002060008373ffffffffffffffffffffffffffffffffffffffff1673ffffffffffffffffffffffffffffffffffffffff16815260200190815260200160002060009054906101000a900460ff16905092915050565b6060600d805490508210611bbd576040517f08c379a0000000000000000000000000000000000000000000000000000000008152600401611bb490614d7f565b60405180910390fd5b60006040518060e0016040528060c0815260200161570c60c09139905060005b838111158015611bf15750600d8054905081105b15611de7576000600d8281548110611c0c57611c0b614219565b5b9060005260206000209060040201604051806080016040529081600082018054611c3590613e0f565b80601f0160208091040260200160405190810160405280929190818152602001828054611c6190613e0f565b8015611cae5780601f10611c8357610100808354040283529160200191611cae565b820191906000526020600020905b815481529060010190602001808311611c9157829003601f168201915b50505050508152602001600182018054611cc790613e0f565b80601f0160208091040260200160405190810160405280929190818152602001828054611cf390613e0f565b8015611d405780601f10611d1557610100808354040283529160200191611d40565b820191906000526020600020905b815481529060010190602001808311611d2357829003601f168201915b50505050508152602001600282015481526020016003820154815250509050828160000151611d8a601084604001516010611d7b9190614d9f565b611d859190614df9565b612868565b8360200151604051602001611da193929190614f7f565b604051602081830303815290604052604051602001611dc1929190615023565b604051602081830303815290604052925050600181611de09190614df9565b9050611bdd565b5080604051602001611df99190615093565b604051602081830303815290604052905080915050919050565b601281565b611e20612206565b73ffffffffffffffffffffffffffffffffffffffff16611e3e61111a565b73ffffffffffffffffffffffffffffffffffffffff1614611e94576040517f08c379a0000000000000000000000000000000000000000000000000000000008152600401611e8b90614167565b60405180910390fd5b600073ffffffffffffffffffffffffffffffffffffffff168173ffffffffffffffffffffffffffffffffffffffff161415611f04576040517f08c379a0000000000000000000000000000000000000000000000000000000008152600401611efb90615127565b60405180910390fd5b611f0d816126a3565b50565b6000808290506007815114611f29576000915050612103565b602360f81b81600081518110611f4257611f41614219565b5b602001015160f81c60f81b7effffffffffffffffffffffffffffffffffffffffffffffffffffffffffffff191614611f7e576000915050612103565b6000600190505b60078110156120fc576000828281518110611fa357611fa2614219565b5b602001015160f81c60f81b9050603060f81b817effffffffffffffffffffffffffffffffffffffffffffffffffffffffffffff19161015801561200c5750603960f81b817effffffffffffffffffffffffffffffffffffffffffffffffffffffffffffff191611155b1580156120725750604160f81b817effffffffffffffffffffffffffffffffffffffffffffffffffffffffffffff1916101580156120705750604660f81b817effffffffffffffffffffffffffffffffffffffffffffffffffffffffffffff191611155b155b80156120d75750606160f81b817effffffffffffffffffffffffffffffffffffffffffffffffffffffffffffff1916101580156120d55750606660f81b817effffffffffffffffffffffffffffffffffffffffffffffffffffffffffffff191611155b155b156120e85760009350505050612103565b5080806120f490614407565b915050611f85565b5060019150505b919050565b73095f1fd53a56c01c76a2a56b7273995ce915d8c481565b60007f780e9d63000000000000000000000000000000000000000000000000000000007bffffffffffffffffffffffffffffffffffffffffffffffffffffffff1916827bffffffffffffffffffffffffffffffffffffffffffffffffffffffff19161480612193575061219282612ba3565b5b9050919050565b60008073ffffffffffffffffffffffffffffffffffffffff166002600084815260200190815260200160002060009054906101000a900473ffffffffffffffffffffffffffffffffffffffff1673ffffffffffffffffffffffffffffffffffffffff1614159050919050565b600033905090565b816004600083815260200190815260200160002060006101000a81548173ffffffffffffffffffffffffffffffffffffffff021916908373ffffffffffffffffffffffffffffffffffffffff160217905550808273ffffffffffffffffffffffffffffffffffffffff1661228183610e14565b73ffffffffffffffffffffffffffffffffffffffff167f8c5be1e5ebec7d5bd14f71427d1e84f3dd0314c0f7b2291e5b200ac8c7c3b92560405160405180910390a45050565b60006122d28261219a565b612311576040517f08c379a0000000000000000000000000000000000000000000000000000000008152600401612308906151b9565b60405180910390fd5b600061231c83610e14565b90508073ffffffffffffffffffffffffffffffffffffffff168473ffffffffffffffffffffffffffffffffffffffff16148061238b57508373ffffffffffffffffffffffffffffffffffffffff16612373846108dc565b73ffffffffffffffffffffffffffffffffffffffff16145b8061239c575061239b8185611ae0565b5b91505092915050565b8273ffffffffffffffffffffffffffffffffffffffff166123c582610e14565b73ffffffffffffffffffffffffffffffffffffffff161461241b576040517f08c379a00000000000000000000000000000000000000000000000000000000081526004016124129061524b565b60405180910390fd5b600073ffffffffffffffffffffffffffffffffffffffff168273ffffffffffffffffffffffffffffffffffffffff16141561248b576040517f08c379a0000000000000000000000000000000000000000000000000000000008152600401612482906152dd565b60405180910390fd5b612496838383612c85565b6124a160008261220e565b6001600360008573ffffffffffffffffffffffffffffffffffffffff1673ffffffffffffffffffffffffffffffffffffffff16815260200190815260200160002060008282546124f191906152fd565b925050819055506001600360008473ffffffffffffffffffffffffffffffffffffffff1673ffffffffffffffffffffffffffffffffffffffff16815260200190815260200160002060008282546125489190614df9565b92505081905550816002600083815260200190815260200160002060006101000a81548173ffffffffffffffffffffffffffffffffffffffff021916908373ffffffffffffffffffffffffffffffffffffffff160217905550808273ffffffffffffffffffffffffffffffffffffffff168473ffffffffffffffffffffffffffffffffffffffff167fddf252ad1be2c89b69c2b068fc378daa952ba7f163c4a11628f55a4df523b3ef60405160405180910390a4505050565b612609610dfd565b612648576040517f08c379a000000000000000000000000000000000000000000000000000000000815260040161263f9061537d565b60405180910390fd5b6000600a60006101000a81548160ff0219169083151502179055507f5db9ee0a495bf2e6ff9c91a7834c1ba4fdd244a5e8aa4e537bd38aeae4b073aa61268c612206565b60405161269991906137fb565b60405180910390a1565b6000600a60019054906101000a900473ffffffffffffffffffffffffffffffffffffffff16905081600a60016101000a81548173ffffffffffffffffffffffffffffffffffffffff021916908373ffffffffffffffffffffffffffffffffffffffff1602179055508173ffffffffffffffffffffffffffffffffffffffff168173ffffffffffffffffffffffffffffffffffffffff167f8be0079c531659141344cd1fd0a4f28419497f9722a3daafe3b4186f6b6457e060405160405180910390a35050565b612771610dfd565b156127b1576040517f08c379a00000000000000000000000000000000000000000000000000000000081526004016127a8906153e9565b60405180910390fd5b6001600a60006101000a81548160ff0219169083151502179055507f62e78cea01bee320cd4e420270b5ea74000d11b0c9f74754ebdbfc544b05a2586127f5612206565b60405161280291906137fb565b60405180910390a1565b6128178484846123a5565b61282384848484612cdd565b612862576040517f08c379a00000000000000000000000000000000000000000000000000000000081526004016128599061547b565b60405180910390fd5b50505050565b606060008214156128b0576040518060400160405280600181526020017f300000000000000000000000000000000000000000000000000000000000000081525090506129c4565b600082905060005b600082146128e25780806128cb90614407565b915050600a826128db91906154ca565b91506128b8565b60008167ffffffffffffffff8111156128fe576128fd613a29565b5b6040519080825280601f01601f1916602001820160405280156129305781602001600182028036833780820191505090505b5090505b600085146129bd5760018261294991906152fd565b9150600a8561295891906154fb565b60306129649190614df9565b60f81b81838151811061297a57612979614219565b5b60200101907effffffffffffffffffffffffffffffffffffffffffffffffffffffffffffff1916908160001a905350600a856129b691906154ca565b9450612934565b8093505050505b919050565b606060008251905060008114156129f25760405180602001604052806000815250915050612b5c565b60006003600283612a039190614df9565b612a0d91906154ca565b6004612a199190614d9f565b90506000602082612a2a9190614df9565b67ffffffffffffffff811115612a4357612a42613a29565b5b6040519080825280601f01601f191660200182016040528015612a755781602001600182028036833780820191505090505b50905060006040518060600160405280604081526020016157cc604091399050600181016020830160005b86811015612b195760038101905062ffffff818a015116603f8160121c168401518060081b905060ff603f83600c1c1686015116810190508060081b905060ff603f8360061c1686015116810190508060081b905060ff603f831686015116810190508060e01b90508084526004840193505050612aa0565b506003860660018114612b335760028114612b4357612b4e565b613d3d60f01b6002830352612b4e565b603d60f81b60018303525b508484525050819450505050505b919050565b600081600001549050919050565b6001816000016000828254019250508190555050565b612b9f828260405180602001604052806000815250612e65565b5050565b60007f80ac58cd000000000000000000000000000000000000000000000000000000007bffffffffffffffffffffffffffffffffffffffffffffffffffffffff1916827bffffffffffffffffffffffffffffffffffffffffffffffffffffffff19161480612c6e57507f5b5e139f000000000000000000000000000000000000000000000000000000007bffffffffffffffffffffffffffffffffffffffffffffffffffffffff1916827bffffffffffffffffffffffffffffffffffffffffffffffffffffffff1916145b80612c7e5750612c7d82612ec0565b5b9050919050565b612c8d610dfd565b15612ccd576040517f08c379a0000000000000000000000000000000000000000000000000000000008152600401612cc4906153e9565b60405180910390fd5b612cd8838383612f2a565b505050565b6000612cfe8473ffffffffffffffffffffffffffffffffffffffff1661303e565b15612e58578373ffffffffffffffffffffffffffffffffffffffff1663150b7a02612d27612206565b8786866040518563ffffffff1660e01b8152600401612d499493929190615576565b6020604051808303816000875af1925050508015612d8557506040513d601f19601f82011682018060405250810190612d8291906155d7565b60015b612e08573d8060008114612db5576040519150601f19603f3d011682016040523d82523d6000602084013e612dba565b606091505b50600081511415612e00576040517f08c379a0000000000000000000000000000000000000000000000000000000008152600401612df79061547b565b60405180910390fd5b805181602001fd5b63150b7a0260e01b7bffffffffffffffffffffffffffffffffffffffffffffffffffffffff1916817bffffffffffffffffffffffffffffffffffffffffffffffffffffffff191614915050612e5d565b600190505b949350505050565b612e6f8383613051565b612e7c6000848484612cdd565b612ebb576040517f08c379a0000000000000000000000000000000000000000000000000000000008152600401612eb29061547b565b60405180910390fd5b505050565b60007f01ffc9a7000000000000000000000000000000000000000000000000000000007bffffffffffffffffffffffffffffffffffffffffffffffffffffffff1916827bffffffffffffffffffffffffffffffffffffffffffffffffffffffff1916149050919050565b612f3583838361321f565b600073ffffffffffffffffffffffffffffffffffffffff168373ffffffffffffffffffffffffffffffffffffffff161415612f7857612f7381613224565b612fb7565b8173ffffffffffffffffffffffffffffffffffffffff168373ffffffffffffffffffffffffffffffffffffffff1614612fb657612fb5838261326d565b5b5b600073ffffffffffffffffffffffffffffffffffffffff168273ffffffffffffffffffffffffffffffffffffffff161415612ffa57612ff5816133da565b613039565b8273ffffffffffffffffffffffffffffffffffffffff168273ffffffffffffffffffffffffffffffffffffffff16146130385761303782826134ab565b5b5b505050565b600080823b905060008111915050919050565b600073ffffffffffffffffffffffffffffffffffffffff168273ffffffffffffffffffffffffffffffffffffffff1614156130c1576040517f08c379a00000000000000000000000000000000000000000000000000000000081526004016130b890615650565b60405180910390fd5b6130ca8161219a565b1561310a576040517f08c379a0000000000000000000000000000000000000000000000000000000008152600401613101906156bc565b60405180910390fd5b61311660008383612c85565b6001600360008473ffffffffffffffffffffffffffffffffffffffff1673ffffffffffffffffffffffffffffffffffffffff16815260200190815260200160002060008282546131669190614df9565b92505081905550816002600083815260200190815260200160002060006101000a81548173ffffffffffffffffffffffffffffffffffffffff021916908373ffffffffffffffffffffffffffffffffffffffff160217905550808273ffffffffffffffffffffffffffffffffffffffff16600073ffffffffffffffffffffffffffffffffffffffff167fddf252ad1be2c89b69c2b068fc378daa952ba7f163c4a11628f55a4df523b3ef60405160405180910390a45050565b505050565b6008805490506009600083815260200190815260200160002081905550600881908060018154018082558091505060019003906000526020600020016000909190919091505550565b6000600161327a84610ec6565b61328491906152fd565b9050600060076000848152602001908152602001600020549050818114613369576000600660008673ffffffffffffffffffffffffffffffffffffffff1673ffffffffffffffffffffffffffffffffffffffff168152602001908152602001600020600084815260200190815260200160002054905080600660008773ffffffffffffffffffffffffffffffffffffffff1673ffffffffffffffffffffffffffffffffffffffff168152602001908152602001600020600084815260200190815260200160002081905550816007600083815260200190815260200160002081905550505b6007600084815260200190815260200160002060009055600660008573ffffffffffffffffffffffffffffffffffffffff1673ffffffffffffffffffffffffffffffffffffffff16815260200190815260200160002060008381526020019081526020016000206000905550505050565b600060016008805490506133ee91906152fd565b905060006009600084815260200190815260200160002054905060006008838154811061341e5761341d614219565b5b9060005260206000200154905080600883815481106134405761343f614219565b5b90600052602060002001819055508160096000838152602001908152602001600020819055506009600085815260200190815260200160002060009055600880548061348f5761348e6156dc565b5b6001900381819060005260206000200160009055905550505050565b60006134b683610ec6565b905081600660008573ffffffffffffffffffffffffffffffffffffffff1673ffffffffffffffffffffffffffffffffffffffff168152602001908152602001600020600083815260200190815260200160002081905550806007600084815260200190815260200160002081905550505050565b82805461353690613e0f565b90600052602060002090601f016020900481019282613558576000855561359f565b82601f1061357157805160ff191683800117855561359f565b8280016001018555821561359f579182015b8281111561359e578251825591602001919060010190613583565b5b5090506135ac91906135b0565b5090565b5b808211156135c95760008160009055506001016135b1565b5090565b6000604051905090565b600080fd5b600080fd5b60007fffffffff0000000000000000000000000000000000000000000000000000000082169050919050565b613616816135e1565b811461362157600080fd5b50565b6000813590506136338161360d565b92915050565b60006020828403121561364f5761364e6135d7565b5b600061365d84828501613624565b91505092915050565b60008115159050919050565b61367b81613666565b82525050565b60006020820190506136966000830184613672565b92915050565b600081519050919050565b600082825260208201905092915050565b60005b838110156136d65780820151818401526020810190506136bb565b838111156136e5576000848401525b50505050565b6000601f19601f8301169050919050565b60006137078261369c565b61371181856136a7565b93506137218185602086016136b8565b61372a816136eb565b840191505092915050565b6000602082019050818103600083015261374f81846136fc565b905092915050565b6000819050919050565b61376a81613757565b811461377557600080fd5b50565b60008135905061378781613761565b92915050565b6000602082840312156137a3576137a26135d7565b5b60006137b184828501613778565b91505092915050565b600073ffffffffffffffffffffffffffffffffffffffff82169050919050565b60006137e5826137ba565b9050919050565b6137f5816137da565b82525050565b600060208201905061381060008301846137ec565b92915050565b61381f816137da565b811461382a57600080fd5b50565b60008135905061383c81613816565b92915050565b60008060408385031215613859576138586135d7565b5b60006138678582860161382d565b925050602061387885828601613778565b9150509250929050565b61388b81613757565b82525050565b60006020820190506138a66000830184613882565b92915050565b6000806000606084860312156138c5576138c46135d7565b5b60006138d38682870161382d565b93505060206138e48682870161382d565b92505060406138f586828701613778565b9150509250925092565b6000819050919050565b613912816138ff565b82525050565b6000608082019050818103600083015261393281876136fc565b9050818103602083015261394681866136fc565b90506139556040830185613909565b6139626060830184613909565b95945050505050565b600060208284031215613981576139806135d7565b5b600061398f8482850161382d565b91505092915050565b6139a181613666565b81146139ac57600080fd5b50565b6000813590506139be81613998565b92915050565b600080604083850312156139db576139da6135d7565b5b60006139e98582860161382d565b92505060206139fa858286016139af565b9150509250929050565b6000602082019050613a196000830184613909565b92915050565b600080fd5b600080fd5b7f4e487b7100000000000000000000000000000000000000000000000000000000600052604160045260246000fd5b613a61826136eb565b810181811067ffffffffffffffff82111715613a8057613a7f613a29565b5b80604052505050565b6000613a936135cd565b9050613a9f8282613a58565b919050565b600067ffffffffffffffff821115613abf57613abe613a29565b5b613ac8826136eb565b9050602081019050919050565b82818337600083830152505050565b6000613af7613af284613aa4565b613a89565b905082815260208101848484011115613b1357613b12613a24565b5b613b1e848285613ad5565b509392505050565b600082601f830112613b3b57613b3a613a1f565b5b8135613b4b848260208601613ae4565b91505092915050565b60008060008060808587031215613b6e57613b6d6135d7565b5b6000613b7c8782880161382d565b9450506020613b8d8782880161382d565b9350506040613b9e87828801613778565b925050606085013567ffffffffffffffff811115613bbf57613bbe6135dc565b5b613bcb87828801613b26565b91505092959194509250565b600067ffffffffffffffff821115613bf257613bf1613a29565b5b613bfb826136eb565b9050602081019050919050565b6000613c1b613c1684613bd7565b613a89565b905082815260208101848484011115613c3757613c36613a24565b5b613c42848285613ad5565b509392505050565b600082601f830112613c5f57613c5e613a1f565b5b8135613c6f848260208601613c08565b91505092915050565b600060208284031215613c8e57613c8d6135d7565b5b600082013567ffffffffffffffff811115613cac57613cab6135dc565b5b613cb884828501613c4a565b91505092915050565b613cca816138ff565b8114613cd557600080fd5b50565b600081359050613ce781613cc1565b92915050565b600080600080600060a08688031215613d0957613d086135d7565b5b6000613d178882890161382d565b955050602086013567ffffffffffffffff811115613d3857613d376135dc565b5b613d4488828901613c4a565b945050604086013567ffffffffffffffff811115613d6557613d646135dc565b5b613d7188828901613c4a565b9350506060613d8288828901613cd8565b9250506080613d9388828901613cd8565b9150509295509295909350565b60008060408385031215613db757613db66135d7565b5b6000613dc58582860161382d565b9250506020613dd68582860161382d565b9150509250929050565b7f4e487b7100000000000000000000000000000000000000000000000000000000600052602260045260246000fd5b60006002820490506001821680613e2757607f821691505b60208210811415613e3b57613e3a613de0565b5b50919050565b7f4552433732313a20617070726f76656420717565727920666f72206e6f6e657860008201527f697374656e7420746f6b656e0000000000000000000000000000000000000000602082015250565b6000613e9d602c836136a7565b9150613ea882613e41565b604082019050919050565b60006020820190508181036000830152613ecc81613e90565b9050919050565b7f4552433732313a20617070726f76616c20746f2063757272656e74206f776e6560008201527f7200000000000000000000000000000000000000000000000000000000000000602082015250565b6000613f2f6021836136a7565b9150613f3a82613ed3565b604082019050919050565b60006020820190508181036000830152613f5e81613f22565b9050919050565b7f4552433732313a20617070726f76652063616c6c6572206973206e6f74206f7760008201527f6e6572206e6f7220617070726f76656420666f7220616c6c0000000000000000602082015250565b6000613fc16038836136a7565b9150613fcc82613f65565b604082019050919050565b60006020820190508181036000830152613ff081613fb4565b9050919050565b7f4552433732313a207472616e736665722063616c6c6572206973206e6f74206f60008201527f776e6572206e6f7220617070726f766564000000000000000000000000000000602082015250565b60006140536031836136a7565b915061405e82613ff7565b604082019050919050565b6000602082019050818103600083015261408281614046565b9050919050565b7f455243373231456e756d657261626c653a206f776e657220696e646578206f7560008201527f74206f6620626f756e6473000000000000000000000000000000000000000000602082015250565b60006140e5602b836136a7565b91506140f082614089565b604082019050919050565b60006020820190508181036000830152614114816140d8565b9050919050565b7f4f776e61626c653a2063616c6c6572206973206e6f7420746865206f776e6572600082015250565b60006141516020836136a7565b915061415c8261411b565b602082019050919050565b6000602082019050818103600083015261418081614144565b9050919050565b7f455243373231456e756d657261626c653a20676c6f62616c20696e646578206f60008201527f7574206f6620626f756e64730000000000000000000000000000000000000000602082015250565b60006141e3602c836136a7565b91506141ee82614187565b604082019050919050565b60006020820190508181036000830152614212816141d6565b9050919050565b7f4e487b7100000000000000000000000000000000000000000000000000000000600052603260045260246000fd5b7f4552433732313a206f776e657220717565727920666f72206e6f6e657869737460008201527f656e7420746f6b656e0000000000000000000000000000000000000000000000602082015250565b60006142a46029836136a7565b91506142af82614248565b604082019050919050565b600060208201905081810360008301526142d381614297565b9050919050565b7f4552433732313a2062616c616e636520717565727920666f7220746865207a6560008201527f726f206164647265737300000000000000000000000000000000000000000000602082015250565b6000614336602a836136a7565b9150614341826142da565b604082019050919050565b6000602082019050818103600083015261436581614329565b9050919050565b7f4552433732313a20617070726f766520746f2063616c6c657200000000000000600082015250565b60006143a26019836136a7565b91506143ad8261436c565b602082019050919050565b600060208201905081810360008301526143d181614395565b9050919050565b7f4e487b7100000000000000000000000000000000000000000000000000000000600052601160045260246000fd5b600061441282613757565b91507fffffffffffffffffffffffffffffffffffffffffffffffffffffffffffffffff821415614445576144446143d8565b5b600182019050919050565b7f4552433732314d657461646174613a2055524920717565727920666f72206e6f60008201527f6e6578697374656e7420746f6b656e0000000000000000000000000000000000602082015250565b60006144ac602f836136a7565b91506144b782614450565b604082019050919050565b600060208201905081810360008301526144db8161449f565b9050919050565b600081905092915050565b7f7b226e616d65223a202241534349492057616c6c202300000000000000000000600082015250565b60006145236016836144e2565b915061452e826144ed565b601682019050919050565b60006145448261369c565b61454e81856144e2565b935061455e8185602086016136b8565b80840191505092915050565b7f222c20226465736372697074696f6e223a202200000000000000000000000000600082015250565b60006145a06013836144e2565b91506145ab8261456a565b601382019050919050565b60008190508160005260206000209050919050565b600081546145d881613e0f565b6145e281866144e2565b945060018216600081146145fd576001811461460e57614641565b60ff19831686528186019350614641565b614617856145b6565b60005b838110156146395781548189015260018201915060208101905061461a565b838801955050505b50505092915050565b7f222c2022696d616765223a2022646174613a696d6167652f7376672b786d6c3b60008201527f6261736536342c00000000000000000000000000000000000000000000000000602082015250565b60006146a66027836144e2565b91506146b18261464a565b602782019050919050565b7f227d000000000000000000000000000000000000000000000000000000000000600082015250565b60006146f26002836144e2565b91506146fd826146bc565b600282019050919050565b600061471382614516565b915061471f8286614539565b915061472a82614593565b915061473682856145cb565b915061474182614699565b915061474d8284614539565b9150614758826146e5565b9150819050949350505050565b7f646174613a6170706c69636174696f6e2f6a736f6e3b6261736536342c000000600082015250565b600061479b601d836144e2565b91506147a682614765565b601d82019050919050565b60006147bc8261478e565b91506147c88284614539565b915081905092915050565b7f546865206f6666736574206d757374206265207a65726f206f7220706f73697460008201527f6976650000000000000000000000000000000000000000000000000000000000602082015250565b600061482f6023836136a7565b915061483a826147d3565b604082019050919050565b6000602082019050818103600083015261485e81614822565b9050919050565b7f546865206c696e65206e756d626572206d757374206265207a65726f206f722060008201527f706f736974697665000000000000000000000000000000000000000000000000602082015250565b60006148c16028836136a7565b91506148cc82614865565b604082019050919050565b600060208201905081810360008301526148f0816148b4565b9050919050565b6000614902826138ff565b915061490d836138ff565b9250817f7fffffffffffffffffffffffffffffffffffffffffffffffffffffffffffffff03831360008312151615614948576149476143d8565b5b817f80000000000000000000000000000000000000000000000000000000000000000383126000831216156149805761497f6143d8565b5b828201905092915050565b7f4d6573736167652077697468206f666673657420697320746f6f206c6f6e6700600082015250565b60006149c1601f836136a7565b91506149cc8261498b565b602082019050919050565b600060208201905081810360008301526149f0816149b4565b9050919050565b7f54686520636f6c6f72206e6565647320746f20626520612076616c696420484560008201527f5820737472696e67206c696b6520233031324142430000000000000000000000602082015250565b6000614a536035836136a7565b9150614a5e826149f7565b604082019050919050565b60006020820190508181036000830152614a8281614a46565b9050919050565b7f546865206d65737361676520636f6e7461696e7320616e20696e76616c69642060008201527f6368617261637465722028262722233c3e290000000000000000000000000000602082015250565b6000614ae56032836136a7565b9150614af082614a89565b604082019050919050565b60006020820190508181036000830152614b1481614ad8565b9050919050565b7f546865206c696e65206e756d62657220697320746f6f20686967680000000000600082015250565b6000614b51601b836136a7565b9150614b5c82614b1b565b602082019050919050565b60006020820190508181036000830152614b8081614b44565b9050919050565b600081519050614b9681613761565b92915050565b600060208284031215614bb257614bb16135d7565b5b6000614bc084828501614b87565b91505092915050565b7f54686520737570706c7920686173206265656e206578686175737465642e0000600082015250565b6000614bff601e836136a7565b9150614c0a82614bc9565b602082019050919050565b60006020820190508181036000830152614c2e81614bf2565b9050919050565b7f56616c75652062656c6f77207072696365000000000000000000000000000000600082015250565b6000614c6b6011836136a7565b9150614c7682614c35565b602082019050919050565b60006020820190508181036000830152614c9a81614c5e565b9050919050565b7f4e6f7420656e6f75676820455448210000000000000000000000000000000000600082015250565b6000614cd7600f836136a7565b9150614ce282614ca1565b602082019050919050565b60006020820190508181036000830152614d0681614cca565b9050919050565b7f43616e27742072656e64657220666f72206120706c6163656d656e742074686160008201527f7420646f65736e27742065786973742079657400000000000000000000000000602082015250565b6000614d696033836136a7565b9150614d7482614d0d565b604082019050919050565b60006020820190508181036000830152614d9881614d5c565b9050919050565b6000614daa82613757565b9150614db583613757565b9250817fffffffffffffffffffffffffffffffffffffffffffffffffffffffffffffffff0483118215151615614dee57614ded6143d8565b5b828202905092915050565b6000614e0482613757565b9150614e0f83613757565b9250827fffffffffffffffffffffffffffffffffffffffffffffffffffffffffffffffff03821115614e4457614e436143d8565b5b828201905092915050565b7f3c746578742066696c6c3d220000000000000000000000000000000000000000600082015250565b6000614e85600c836144e2565b9150614e9082614e4f565b600c82019050919050565b7f2220793d22000000000000000000000000000000000000000000000000000000600082015250565b6000614ed16005836144e2565b9150614edc82614e9b565b600582019050919050565b7f223e000000000000000000000000000000000000000000000000000000000000600082015250565b6000614f1d6002836144e2565b9150614f2882614ee7565b600282019050919050565b7f3c2f746578743e00000000000000000000000000000000000000000000000000600082015250565b6000614f696007836144e2565b9150614f7482614f33565b600782019050919050565b6000614f8a82614e78565b9150614f968286614539565b9150614fa182614ec4565b9150614fad8285614539565b9150614fb882614f10565b9150614fc48284614539565b9150614fcf82614f5c565b9150819050949350505050565b600081519050919050565b600081905092915050565b6000614ffd82614fdc565b6150078185614fe7565b93506150178185602086016136b8565b80840191505092915050565b600061502f8285614539565b915061503b8284614ff2565b91508190509392505050565b7f3c2f7376673e0000000000000000000000000000000000000000000000000000600082015250565b600061507d6006836144e2565b915061508882615047565b600682019050919050565b600061509f8284614539565b91506150aa82615070565b915081905092915050565b7f4f776e61626c653a206e6577206f776e657220697320746865207a65726f206160008201527f6464726573730000000000000000000000000000000000000000000000000000602082015250565b60006151116026836136a7565b915061511c826150b5565b604082019050919050565b6000602082019050818103600083015261514081615104565b9050919050565b7f4552433732313a206f70657261746f7220717565727920666f72206e6f6e657860008201527f697374656e7420746f6b656e0000000000000000000000000000000000000000602082015250565b60006151a3602c836136a7565b91506151ae82615147565b604082019050919050565b600060208201905081810360008301526151d281615196565b9050919050565b7f4552433732313a207472616e73666572206f6620746f6b656e2074686174206960008201527f73206e6f74206f776e0000000000000000000000000000000000000000000000602082015250565b60006152356029836136a7565b9150615240826151d9565b604082019050919050565b6000602082019050818103600083015261526481615228565b9050919050565b7f4552433732313a207472616e7366657220746f20746865207a65726f2061646460008201527f7265737300000000000000000000000000000000000000000000000000000000602082015250565b60006152c76024836136a7565b91506152d28261526b565b604082019050919050565b600060208201905081810360008301526152f6816152ba565b9050919050565b600061530882613757565b915061531383613757565b925082821015615326576153256143d8565b5b828203905092915050565b7f5061757361626c653a206e6f7420706175736564000000000000000000000000600082015250565b60006153676014836136a7565b915061537282615331565b602082019050919050565b600060208201905081810360008301526153968161535a565b9050919050565b7f5061757361626c653a2070617573656400000000000000000000000000000000600082015250565b60006153d36010836136a7565b91506153de8261539d565b602082019050919050565b60006020820190508181036000830152615402816153c6565b9050919050565b7f4552433732313a207472616e7366657220746f206e6f6e20455243373231526560008201527f63656976657220696d706c656d656e7465720000000000000000000000000000602082015250565b60006154656032836136a7565b915061547082615409565b604082019050919050565b6000602082019050818103600083015261549481615458565b9050919050565b7f4e487b7100000000000000000000000000000000000000000000000000000000600052601260045260246000fd5b60006154d582613757565b91506154e083613757565b9250826154f0576154ef61549b565b5b828204905092915050565b600061550682613757565b915061551183613757565b9250826155215761552061549b565b5b828206905092915050565b600082825260208201905092915050565b600061554882614fdc565b615552818561552c565b93506155628185602086016136b8565b61556b816136eb565b840191505092915050565b600060808201905061558b60008301876137ec565b61559860208301866137ec565b6155a56040830185613882565b81810360608301526155b7818461553d565b905095945050505050565b6000815190506155d18161360d565b92915050565b6000602082840312156155ed576155ec6135d7565b5b60006155fb848285016155c2565b91505092915050565b7f4552433732313a206d696e7420746f20746865207a65726f2061646472657373600082015250565b600061563a6020836136a7565b915061564582615604565b602082019050919050565b600060208201905081810360008301526156698161562d565b9050919050565b7f4552433732313a20746f6b656e20616c7265616479206d696e74656400000000600082015250565b60006156a6601c836136a7565b91506156b182615670565b602082019050919050565b600060208201905081810360008301526156d581615699565b9050919050565b7f4e487b7100000000000000000000000000000000000000000000000000000000600052603160045260246000fdfe3c7376672076657273696f6e3d22312e31222077696474683d2232393722206865696768743d223239322220786d6c6e733d22687474703a2f2f7777772e77332e6f72672f323030302f737667223e3c726563742077696474683d223130302522206865696768743d2231303025222066696c6c3d22626c61636b22202f3e3c7374796c653e2074657874207b20666f6e742d66616d696c793a206d6f6e6f73706163653b20666f6e742d73697a653a20313270783b7d203c2f7374796c653e4142434445464748494a4b4c4d4e4f505152535455565758595a6162636465666768696a6b6c6d6e6f707172737475767778797a303132333435363738392b2fa2646970667358221220e411ecaaa85ca774e206aa531b61848bac51a8823aede99bd7229f2b3861f78064736f6c634300080a0033",
  "immutableReferences": {},
  "source": "// SPDX-License-Identifier: MIT\npragma solidity ^0.8.2;\n\nimport \"@openzeppelin/contracts/token/ERC721/ERC721.sol\";\nimport \"@openzeppelin/contracts/token/ERC721/extensions/ERC721Enumerable.sol\";\nimport \"@openzeppelin/contracts/security/Pausable.sol\";\nimport \"@openzeppelin/contracts/access/Ownable.sol\";\nimport \"@openzeppelin/contracts/utils/Counters.sol\";\nimport \"@openzeppelin/contracts/utils/Strings.sol\";\n\nimport \"./Base64.sol\";\n\ncontract ASCIIWall is ERC721, ERC721Enumerable, Pausable, Ownable {\n    using Counters for Counters.Counter;\n\n    Counters.Counter private _tokenIdCounter;\n    int public constant MAX_LINE_COUNT = 18;\n    int public constant MAX_LINE_LENGTH = 41;\n    uint public constant TEXT_LINE_HEIGHT = 16;\n    uint public constant MAX_TOKEN_COUNT = 100;\n    uint256 public constant TOKEN_COST = 25000000000000000;\n    address public constant DEPOSIT_ADDRESS = 0x095f1fD53A56C01c76A2a56B7273995Ce915d8C4;\n    string public PROJECT_DESCRIPTION = \"Death is only the beginning\";\n\n    struct WordPlacement {\n        string color;\n        string message;\n        int line;\n        int offset;\n    }\n\n    WordPlacement[] public  wordPlacements;\n\n    constructor() ERC721(\"ASCIIWall\", \"ASC\") {}\n\n    function _baseURI() internal pure override returns (string memory) {\n        return \"https://j4.is/foo/\";\n    }\n\n    function pause() public onlyOwner {\n        _pause();\n    }\n\n    function unpause() public onlyOwner {\n        _unpause();\n    }\n\n\n    function safeMint(address to, string memory wordColor, string memory message, int line, int offset) public payable {\n        require(offset >= 0, \"The offset must be zero or positive\");\n        require(line >= 0, \"The line number must be zero or positive\");\n        require(offset + int(bytes(message).length) <= MAX_LINE_LENGTH, \"Message with offset is too long\");\n        require(isValidColor(wordColor), \"The color needs to be a valid HEX string like #012ABC\");\n        require(isValidMessage(message), \"The message contains an invalid character (&'\\\"#<>)\");\n        require(line < MAX_LINE_COUNT, \"The line number is too high\");\n        require(this.totalSupply() < MAX_TOKEN_COUNT, \"The supply has been exhausted.\");\n        require(msg.value >= TOKEN_COST, \"Value below price\");\n        require(address(msg.sender).balance > TOKEN_COST, \"Not enough ETH!\");\n        address payable p = payable(DEPOSIT_ADDRESS);\n        p.transfer(TOKEN_COST);\n\n        uint256 tokenId = _tokenIdCounter.current();\n        _tokenIdCounter.increment();\n        _safeMint(to, tokenId);\n\n        wordPlacements.push(WordPlacement({\n                color: wordColor,\n                message: message,\n                line: line,\n                offset: offset\n                }));\n    }\n\n    function _beforeTokenTransfer(address from, address to, uint256 tokenId)\n        internal\n        whenNotPaused\n        override(ERC721, ERC721Enumerable)\n    {\n        super._beforeTokenTransfer(from, to, tokenId);\n    }\n\n    // The following functions are overrides required by Solidity.\n    function supportsInterface(bytes4 interfaceId)\n        public\n        view\n        override(ERC721, ERC721Enumerable)\n        returns (bool)\n    {\n        return super.supportsInterface(interfaceId);\n    }\n\n    function isValidColor(string memory color) public pure returns(bool) {\n        bytes memory b = bytes(color);\n        if(b.length != 7) {\n            return false;\n        }\n\n        if (b[0] != 0x23) {\n            return false;\n        }\n\n        for(uint i = 1; i < 7; i++){\n            bytes1 char = b[i];\n            if(\n               !(char >= 0x30 && char <= 0x39) && // 9-0\n               !(char >= 0x41 && char <= 0x46) && // A-F\n               !(char >= 0x61 && char <= 0x66) // a-f\n               ){\n                return false;\n            }\n        }\n\n        return true;\n    }\n    function isValidMessage(string memory message) public pure returns(bool) {\n        bytes memory b = bytes(message);\n        for(uint i = 0; i < b.length; i++){\n            bytes1 char = b[i];\n            if(\n               !(char >= 0x20 && char <= 0x21) && // [ !]\n               !(char >= 0x23 && char <= 0x25) && // [#$%]\n               !(char >= 0x28 && char <= 0x3B) && // [(-;]\n               !(char >= 0x3F && char <= 0x7E) && // [?-~]\n               char != 0x3D // =\n               ){\n                return false;\n            }\n        }\n        return true;\n    }\n\n    function renderForIndex(uint256 idx) public view returns (string memory) {\n        require(idx < wordPlacements.length, \"Can't render for a placement that doesn't exist yet\");\n        string memory foo = \"<svg version=\\\"1.1\\\" width=\\\"297\\\" height=\\\"292\\\" xmlns=\\\"http://www.w3.org/2000/svg\\\"><rect width=\\\"100%\\\" height=\\\"100%\\\" fill=\\\"black\\\" /><style> text { font-family: monospace; font-size: 12px;} </style>\";\n\n        for(uint i = 0; i <= idx && i < wordPlacements.length; i = i + 1) {\n            WordPlacement memory wp = wordPlacements[i];\n            foo = string(abi.encodePacked(foo, abi.encodePacked(\"<text fill=\\\"\", wp.color, \"\\\" y=\\\"\", Strings.toString(TEXT_LINE_HEIGHT * uint(wp.line) + TEXT_LINE_HEIGHT), \"\\\">\", wp.message , \"</text>\")));\n        }\n        foo = string(abi.encodePacked(foo,  \"</svg>\"));\n        return foo;\n    }\n\n    function tokenURI(uint tokenId) public view override(ERC721) returns (string memory) {\n        require(_exists(tokenId), \"ERC721Metadata: URI query for nonexistent token\");\n        bytes memory svg = bytes(renderForIndex(tokenId));\n\n        bytes memory json = abi.encodePacked( \"{\\\"name\\\": \\\"ASCII Wall #\", Strings.toString(tokenId), \"\\\", \\\"description\\\": \\\"\", PROJECT_DESCRIPTION, \"\\\", \\\"image\\\": \\\"data:image/svg+xml;base64,\", Base64.encode(svg), \"\\\"}\");\n                                                      \n        return string(abi.encodePacked(\"data:application/json;base64,\", Base64.encode(json)));\n    }\n\n}\n\n",
  "sourcePath": "/Users/jhilliard/code/chain-wall/contracts/ASCIIWall.sol",
  "compiler": {
    "name": "solc",
    "version": "0.8.10+commit.fc410830.Emscripten.clang"
  },
  "schemaVersion": "3.4.3",
  "updatedAt": "2021-11-14T05:29:33.573Z",
  "networkType": "ethereum",
  "devdoc": {
    "kind": "dev",
    "methods": {
      "approve(address,uint256)": {
        "details": "See {IERC721-approve}."
      },
      "balanceOf(address)": {
        "details": "See {IERC721-balanceOf}."
      },
      "getApproved(uint256)": {
        "details": "See {IERC721-getApproved}."
      },
      "isApprovedForAll(address,address)": {
        "details": "See {IERC721-isApprovedForAll}."
      },
      "name()": {
        "details": "See {IERC721Metadata-name}."
      },
      "owner()": {
        "details": "Returns the address of the current owner."
      },
      "ownerOf(uint256)": {
        "details": "See {IERC721-ownerOf}."
      },
      "paused()": {
        "details": "Returns true if the contract is paused, and false otherwise."
      },
      "renounceOwnership()": {
        "details": "Leaves the contract without owner. It will not be possible to call `onlyOwner` functions anymore. Can only be called by the current owner. NOTE: Renouncing ownership will leave the contract without an owner, thereby removing any functionality that is only available to the owner."
      },
      "safeTransferFrom(address,address,uint256)": {
        "details": "See {IERC721-safeTransferFrom}."
      },
      "safeTransferFrom(address,address,uint256,bytes)": {
        "details": "See {IERC721-safeTransferFrom}."
      },
      "setApprovalForAll(address,bool)": {
        "details": "See {IERC721-setApprovalForAll}."
      },
      "symbol()": {
        "details": "See {IERC721Metadata-symbol}."
      },
      "tokenByIndex(uint256)": {
        "details": "See {IERC721Enumerable-tokenByIndex}."
      },
      "tokenOfOwnerByIndex(address,uint256)": {
        "details": "See {IERC721Enumerable-tokenOfOwnerByIndex}."
      },
      "tokenURI(uint256)": {
        "details": "See {IERC721Metadata-tokenURI}."
      },
      "totalSupply()": {
        "details": "See {IERC721Enumerable-totalSupply}."
      },
      "transferFrom(address,address,uint256)": {
        "details": "See {IERC721-transferFrom}."
      },
      "transferOwnership(address)": {
        "details": "Transfers ownership of the contract to a new account (`newOwner`). Can only be called by the current owner."
      }
    },
    "version": 1
  },
  "userdoc": {
    "kind": "user",
    "methods": {},
    "version": 1
  }
}